:1000000012C02CC02BC02AC029C028C027C026C0BF
:1000100025C024C023C022C021C020C01FC01EC0D4
:100020001DC01CC01BC011241FBECFE5D4E0DEBF25
:10003000CDBF10E0A0E6B0E0ECEBF1E002C005902F
:100040000D92A437B107D9F720E0A4E7B0E001C0D2
:100050001D92A537B207E1F774D0AEC0D1CF32B34D
:1000600090E0FC01E659FF4F2081322332BB32B3CE
:100070002C7F232B22BB28B3FC01E05AFF4F808149
:10008000282328BB98B38170892B88BB089597B12A
:100090008F70892B87B93E9A3D9886B1876086B963
:1000A000379A369A3699FECF24B185B190E0982FD1
:1000B0008827820F911D08951F93CF93DF931AE035
:1000C000C0E0D0E080E0E3DFC80FD91F1150D1F7C6
:1000D000CE016AE070E05CD0CB01DF91CF911F913F
:1000E0000895882369F19091740021E092279093FC
:1000F0007400992319F0C19AC29802C0C198C29A9B
:100100002FEF33ED50E3215030405040E1F700C075
:100110000000C198C29840E02AE030E0281B310975
:10012000842F90E0821793075CF48FEF93ED50E3F8
:10013000815090405040E1F700C000004F5FF0CF89
:100140000895CF93DF931F92CDB7DEB78FEF81BBBA
:1001500087BB46E9E42EF12C1AE0AEDF8739910522
:1001600010F086E990E0189F9001199F300D11243E
:10017000C901B7010DD0862F698371DF6981862F90
:10018000B0DF8FE39CE90197F1F700C00000E5CFF5
:10019000AA1BBB1B51E107C0AA1FBB1FA617B707AD
:1001A00010F0A61BB70B881F991F5A95A9F78095C9
:0C01B0009095BC01CD010895F894FFCF9C
:1001BC00FFFEFFFFFEFFFFFEFFFFFB63B7776F5FE6
:0401CC00DF73FF7F5F
:00000001FF
